{
  "contractName": "Sell",
  "abi": [
    {
      "inputs": [
        {
          "internalType": "uint256",
          "name": "_concert",
          "type": "uint256"
        },
        {
          "internalType": "uint256",
          "name": "_number",
          "type": "uint256"
        }
      ],
      "name": "getHash",
      "outputs": [
        {
          "internalType": "bytes32",
          "name": "",
          "type": "bytes32"
        }
      ],
      "stateMutability": "pure",
      "type": "function",
      "constant": true
    },
    {
      "inputs": [
        {
          "internalType": "uint256",
          "name": "_concert",
          "type": "uint256"
        },
        {
          "internalType": "uint256",
          "name": "_number",
          "type": "uint256"
        },
        {
          "internalType": "uint256",
          "name": "_vipPrice",
          "type": "uint256"
        },
        {
          "internalType": "uint256",
          "name": "_rPrice",
          "type": "uint256"
        },
        {
          "internalType": "uint256",
          "name": "_aPrice",
          "type": "uint256"
        }
      ],
      "name": "registerConcert",
      "outputs": [],
      "stateMutability": "nonpayable",
      "type": "function"
    },
    {
      "inputs": [
        {
          "internalType": "uint256",
          "name": "_concert",
          "type": "uint256"
        },
        {
          "internalType": "uint256",
          "name": "_number",
          "type": "uint256"
        }
      ],
      "name": "buyTicket",
      "outputs": [],
      "stateMutability": "nonpayable",
      "type": "function"
    },
    {
      "inputs": [
        {
          "internalType": "uint256",
          "name": "_concert",
          "type": "uint256"
        },
        {
          "internalType": "uint256",
          "name": "_number",
          "type": "uint256"
        }
      ],
      "name": "transferTicket",
      "outputs": [],
      "stateMutability": "nonpayable",
      "type": "function"
    },
    {
      "inputs": [
        {
          "internalType": "uint256",
          "name": "_concert",
          "type": "uint256"
        },
        {
          "internalType": "uint256",
          "name": "_number",
          "type": "uint256"
        },
        {
          "internalType": "uint256",
          "name": "_price",
          "type": "uint256"
        }
      ],
      "name": "setPrice",
      "outputs": [],
      "stateMutability": "nonpayable",
      "type": "function"
    },
    {
      "inputs": [
        {
          "internalType": "uint256",
          "name": "_concert",
          "type": "uint256"
        },
        {
          "internalType": "uint256",
          "name": "_number",
          "type": "uint256"
        }
      ],
      "name": "checkMyTicket",
      "outputs": [
        {
          "internalType": "bool",
          "name": "",
          "type": "bool"
        }
      ],
      "stateMutability": "view",
      "type": "function",
      "constant": true
    }
  ],
  "bytecode": "0x60806040526040518060600160405280600460ff168152602001600560ff168152602001600660ff16815250600190600361003b92919061004e565b5034801561004857600080fd5b506100bd565b82805482825590600052602060002090810192821561008f579160200282015b8281111561008e578251829060ff1690559160200191906001019061006e565b5b50905061009c91906100a0565b5090565b5b808211156100b95760008160009055506001016100a1565b5090565b6113cf806100cc6000396000f3fe608060405234801561001057600080fd5b506004361061007f576000357c0100000000000000000000000000000000000000000000000000000000900480631b85504414610084578063298ec208146100b4578063a0836536146100d0578063aa585d56146100ec578063bf6ff7fe14610108578063c631b07214610138575b600080fd5b61009e60048036038101906100999190610dba565b610154565b6040516100ab9190610fc9565b60405180910390f35b6100ce60048036038101906100c99190610dba565b6101b5565b005b6100ea60048036038101906100e59190610e45565b61021c565b005b61010660048036038101906101019190610df6565b610524565b005b610122600480360381019061011d9190610dba565b61064d565b60405161012f9190610fae565b60405180910390f35b610152600480360381019061014d9190610dba565b61070a565b005b600080610160846108da565b9050600061016d846108da565b9050600061017b8383610ace565b90506000816040516020016101909190610f97565b6040516020818303038152906040528051906020012090508094505050505092915050565b60006101c18383610154565b90503360008083815260200190815260200160002060010160006101000a81548173ffffffffffffffffffffffffffffffffffffffff021916908373ffffffffffffffffffffffffffffffffffffffff160217905550505050565b60005b8481101561051c5760006102338783610154565b90506001600081548110610270577f4e487b7100000000000000000000000000000000000000000000000000000000600052603260045260246000fd5b90600052602060002001548210156103415760405180606001604052808681526020013373ffffffffffffffffffffffffffffffffffffffff168152602001600015158152506000808381526020019081526020016000206000820151816000015560208201518160010160006101000a81548173ffffffffffffffffffffffffffffffffffffffff021916908373ffffffffffffffffffffffffffffffffffffffff16021790555060408201518160010160146101000a81548160ff021916908315150217905550905050610508565b6001808154811061037b577f4e487b7100000000000000000000000000000000000000000000000000000000600052603260045260246000fd5b906000526020600020015482101561044c5760405180606001604052808581526020013373ffffffffffffffffffffffffffffffffffffffff168152602001600015158152506000808381526020019081526020016000206000820151816000015560208201518160010160006101000a81548173ffffffffffffffffffffffffffffffffffffffff021916908373ffffffffffffffffffffffffffffffffffffffff16021790555060408201518160010160146101000a81548160ff021916908315150217905550905050610507565b60405180606001604052808481526020013373ffffffffffffffffffffffffffffffffffffffff168152602001600015158152506000808381526020019081526020016000206000820151816000015560208201518160010160006101000a81548173ffffffffffffffffffffffffffffffffffffffff021916908373ffffffffffffffffffffffffffffffffffffffff16021790555060408201518160010160146101000a81548160ff0219169083151502179055509050505b5b50808061051490611237565b91505061021f565b505050505050565b60006105308484610154565b90503373ffffffffffffffffffffffffffffffffffffffff1660008083815260200190815260200160002060010160009054906101000a900473ffffffffffffffffffffffffffffffffffffffff1673ffffffffffffffffffffffffffffffffffffffff16146105d5576040517f08c379a00000000000000000000000000000000000000000000000000000000081526004016105cc90611044565b60405180910390fd5b8160008083815260200190815260200160002060000154101561062d576040517f08c379a000000000000000000000000000000000000000000000000000000000815260040161062490611004565b60405180910390fd5b816000808381526020019081526020016000206000018190555050505050565b60008061065a8484610154565b90503373ffffffffffffffffffffffffffffffffffffffff1660008083815260200190815260200160002060010160009054906101000a900473ffffffffffffffffffffffffffffffffffffffff1673ffffffffffffffffffffffffffffffffffffffff16146106ff576040517f08c379a00000000000000000000000000000000000000000000000000000000081526004016106f690611044565b60405180910390fd5b600191505092915050565b60006107168383610154565b90503373ffffffffffffffffffffffffffffffffffffffff1660008083815260200190815260200160002060010160009054906101000a900473ffffffffffffffffffffffffffffffffffffffff1673ffffffffffffffffffffffffffffffffffffffff1614156107bc576040517f08c379a00000000000000000000000000000000000000000000000000000000081526004016107b390611024565b60405180910390fd5b6000151560008083815260200190815260200160002060010160149054906101000a900460ff16151514610825576040517f08c379a000000000000000000000000000000000000000000000000000000000815260040161081c90610fe4565b60405180910390fd5b600160008083815260200190815260200160002060010160146101000a81548160ff0219169083151502179055503360008083815260200190815260200160002060010160006101000a81548173ffffffffffffffffffffffffffffffffffffffff021916908373ffffffffffffffffffffffffffffffffffffffff160217905550600080600083815260200190815260200160002060010160146101000a81548160ff021916908315150217905550505050565b60606000821415610922576040518060400160405280600181526020017f30000000000000000000000000000000000000000000000000000000000000008152509050610ac9565b600082905060005b6000821461095457808061093d90611237565b915050600a8261094d9190611118565b915061092a565b60008167ffffffffffffffff811115610996577f4e487b7100000000000000000000000000000000000000000000000000000000600052604160045260246000fd5b6040519080825280601f01601f1916602001820160405280156109c85781602001600182028036833780820191505090505b50905060008290505b60008614610ac1576001816109e691906111a3565b90506000600a80886109f89190611118565b610a029190611149565b87610a0d91906111a3565b6030610a1991906110e1565b90506000817f010000000000000000000000000000000000000000000000000000000000000002905080848481518110610a7c577f4e487b7100000000000000000000000000000000000000000000000000000000600052603260045260246000fd5b60200101907effffffffffffffffffffffffffffffffffffffffffffffffffffffffffffff1916908160001a905350600a88610ab89190611118565b975050506109d1565b819450505050505b919050565b606060008390506000839050600081518351610aea919061108b565b67ffffffffffffffff811115610b29577f4e487b7100000000000000000000000000000000000000000000000000000000600052604160045260246000fd5b6040519080825280601f01601f191660200182016040528015610b5b5781602001600182028036833780820191505090505b5090506000819050600080600091505b8551821015610c7e57858281518110610bad577f4e487b7100000000000000000000000000000000000000000000000000000000600052603260045260246000fd5b60200101517f010000000000000000000000000000000000000000000000000000000000000090047f010000000000000000000000000000000000000000000000000000000000000002838280610c0390611237565b935081518110610c3c577f4e487b7100000000000000000000000000000000000000000000000000000000600052603260045260246000fd5b60200101907effffffffffffffffffffffffffffffffffffffffffffffffffffffffffffff1916908160001a9053508180610c7690611237565b925050610b6b565b600091505b8451821015610d9657848281518110610cc5577f4e487b7100000000000000000000000000000000000000000000000000000000600052603260045260246000fd5b60200101517f010000000000000000000000000000000000000000000000000000000000000090047f010000000000000000000000000000000000000000000000000000000000000002838280610d1b90611237565b935081518110610d54577f4e487b7100000000000000000000000000000000000000000000000000000000600052603260045260246000fd5b60200101907effffffffffffffffffffffffffffffffffffffffffffffffffffffffffffff1916908160001a9053508180610d8e90611237565b925050610c83565b82965050505050505092915050565b600081359050610db481611382565b92915050565b60008060408385031215610dcd57600080fd5b6000610ddb85828601610da5565b9250506020610dec85828601610da5565b9150509250929050565b600080600060608486031215610e0b57600080fd5b6000610e1986828701610da5565b9350506020610e2a86828701610da5565b9250506040610e3b86828701610da5565b9150509250925092565b600080600080600060a08688031215610e5d57600080fd5b6000610e6b88828901610da5565b9550506020610e7c88828901610da5565b9450506040610e8d88828901610da5565b9350506060610e9e88828901610da5565b9250506080610eaf88828901610da5565b9150509295509295909350565b610ec5816111d7565b82525050565b610ed4816111e3565b82525050565b6000610ee582611064565b610eef8185611080565b9350610eff818560208601611204565b80840191505092915050565b6000610f1860138361106f565b9150610f23826112de565b602082019050919050565b6000610f3b600d8361106f565b9150610f4682611307565b602082019050919050565b6000610f5e60138361106f565b9150610f6982611330565b602082019050919050565b6000610f8160098361106f565b9150610f8c82611359565b602082019050919050565b6000610fa38284610eda565b915081905092915050565b6000602082019050610fc36000830184610ebc565b92915050565b6000602082019050610fde6000830184610ecb565b92915050565b60006020820190508181036000830152610ffd81610f0b565b9050919050565b6000602082019050818103600083015261101d81610f2e565b9050919050565b6000602082019050818103600083015261103d81610f51565b9050919050565b6000602082019050818103600083015261105d81610f74565b9050919050565b600081519050919050565b600082825260208201905092915050565b600081905092915050565b6000611096826111ed565b91506110a1836111ed565b9250827fffffffffffffffffffffffffffffffffffffffffffffffffffffffffffffffff038211156110d6576110d5611280565b5b828201905092915050565b60006110ec826111f7565b91506110f7836111f7565b92508260ff0382111561110d5761110c611280565b5b828201905092915050565b6000611123826111ed565b915061112e836111ed565b92508261113e5761113d6112af565b5b828204905092915050565b6000611154826111ed565b915061115f836111ed565b9250817fffffffffffffffffffffffffffffffffffffffffffffffffffffffffffffffff048311821515161561119857611197611280565b5b828202905092915050565b60006111ae826111ed565b91506111b9836111ed565b9250828210156111cc576111cb611280565b5b828203905092915050565b60008115159050919050565b6000819050919050565b6000819050919050565b600060ff82169050919050565b60005b83811015611222578082015181840152602081019050611207565b83811115611231576000848401525b50505050565b6000611242826111ed565b91507fffffffffffffffffffffffffffffffffffffffffffffffffffffffffffffffff82141561127557611274611280565b5b600182019050919050565b7f4e487b7100000000000000000000000000000000000000000000000000000000600052601160045260246000fd5b7f4e487b7100000000000000000000000000000000000000000000000000000000600052601260045260246000fd5b7f616c7265616479207472616e7366657272656400000000000000000000000000600082015250565b7f696e76616c696420707269636500000000000000000000000000000000000000600082015250565b7f616c726561647920796f7572207469636b657400000000000000000000000000600082015250565b7f6e6f74206f776e65720000000000000000000000000000000000000000000000600082015250565b61138b816111ed565b811461139657600080fd5b5056fea2646970667358221220eb3cada675ce16a25fc203ddec334f5d83764975931dc8f376bdee9eef30626a64736f6c63430008030033",
  "immutableReferences": {},
  "source": "// SPDX-License-Identifier: MIT\r\npragma solidity ^0.8.3;\r\n\r\ncontract Sell{\r\n    \r\n    struct ticketInfo{\r\n        uint256 price;\r\n        address owner;\r\n        bool isTransferred;\r\n    }\r\n    \r\n    mapping(bytes32 => ticketInfo) ticket;\r\n    \r\n    uint256[] theater =  [4, 5, 6];\r\n    \r\n    /**\r\n    * @dev    hash  .\r\n    * @param _concert  \r\n    * @param _number  \r\n    * @return   hash  .\r\n    */\r\n    function getHash(uint256 _concert, uint256 _number) public pure returns(bytes32) {\r\n        string memory concert = uint2str(_concert);\r\n        string memory number = uint2str(_number);\r\n        string memory tmp = concat(concert, number);\r\n        bytes32 hashResult = keccak256(abi.encodePacked(tmp));\r\n        return hashResult;\r\n    }\r\n    \r\n    /**\r\n    * @dev    hash  ticket  . \r\n    * @param _concert  \r\n    * @param _number  \r\n    * @param _vipPrice VIP  \r\n    * @param _rPrice R  \r\n    * @param _aPrice A  \r\n    */\r\n    function registerConcert(uint256 _concert, uint256 _number, uint256 _vipPrice, uint256 _rPrice, uint256 _aPrice) public {\r\n        for(uint i=0; i<_number; i++){\r\n            bytes32 hash = getHash(_concert, i);\r\n            \r\n            if(i<theater[0]){\r\n                ticket[hash] = ticketInfo(_vipPrice, msg.sender, false);\r\n            }\r\n            else if(i<theater[1]){\r\n                ticket[hash] = ticketInfo(_rPrice, msg.sender, false);\r\n            }\r\n            else{\r\n                ticket[hash] = ticketInfo(_aPrice, msg.sender, false);\r\n            }\r\n        }\r\n        \r\n    }\r\n    \r\n    /**\r\n    * @dev     .\r\n    * @param _concert  \r\n    * @param _number  \r\n    */\r\n    function buyTicket(uint256 _concert, uint256 _number) public {\r\n        bytes32 hash = getHash(_concert, _number);\r\n        ticket[hash].owner = msg.sender;\r\n    }\r\n    \r\n    /**\r\n    * @dev     .\r\n    * @param _concert  \r\n    * @param _number  \r\n    */\r\n    function transferTicket(uint256 _concert, uint256 _number) public {\r\n        bytes32 hash = getHash(_concert, _number);\r\n        require(ticket[hash].owner != msg.sender, \"already your ticket\");\r\n        require(ticket[hash].isTransferred == false, \"already transferred\");\r\n        ticket[hash].isTransferred = true;\r\n        ticket[hash].owner = msg.sender;\r\n        ticket[hash].isTransferred = false;\r\n    }\r\n    \r\n    /**\r\n    * @dev     .\r\n    * @param _concert  \r\n    * @param _number  \r\n    * @param _price  \r\n    */\r\n    function setPrice(uint256 _concert, uint256 _number, uint256 _price) public {\r\n        bytes32 hash = getHash(_concert, _number);\r\n        require(ticket[hash].owner == msg.sender, \"not owner\");\r\n        require(ticket[hash].price >= _price, \"invalid price\");\r\n        ticket[hash].price = _price;\r\n    }\r\n    \r\n    /**\r\n    * @dev     .\r\n    * @param _concert  \r\n    * @param _number  \r\n    * @return     true.\r\n    */\r\n    function checkMyTicket(uint256 _concert, uint256 _number) public view returns(bool) {\r\n        bytes32 hash = getHash(_concert, _number);\r\n        require(ticket[hash].owner == msg.sender, \"not owner\");\r\n        return true;\r\n    }\r\n    \r\n    // uint to string\r\n    function uint2str(uint _i) internal pure returns (string memory _uintAsString) {\r\n        if (_i == 0) {\r\n            return \"0\";\r\n        }\r\n        uint j = _i;\r\n        uint len;\r\n        while (j != 0) {\r\n            len++;\r\n            j /= 10;\r\n        }\r\n        bytes memory bstr = new bytes(len);\r\n        uint k = len;\r\n        while (_i != 0) {\r\n            k = k-1;\r\n            uint8 temp = (48 + uint8(_i - _i / 10 * 10));\r\n            bytes1 b1 = bytes1(temp);\r\n            bstr[k] = b1;\r\n            _i /= 10;\r\n        }\r\n        return string(bstr);\r\n    }\r\n    \r\n    // string concat\r\n    function concat(string memory _base, string memory _value) internal pure returns (string memory) {\r\n        bytes memory _baseBytes = bytes(_base);\r\n        bytes memory _valueBytes = bytes(_value);\r\n\r\n        string memory _tmpValue = new string(_baseBytes.length + _valueBytes.length);\r\n        bytes memory _newValue = bytes(_tmpValue);\r\n\r\n        uint i;\r\n        uint j;\r\n\r\n        for(i=0; i<_baseBytes.length; i++) {\r\n            _newValue[j++] = _baseBytes[i];\r\n        }\r\n\r\n        for(i=0; i<_valueBytes.length; i++) {\r\n            _newValue[j++] = _valueBytes[i];\r\n        }\r\n\r\n        return string(_newValue);\r\n    }\r\n}",
  "sourcePath": "C:\\Users\\seung\\OneDrive\\ \\test\\contracts\\Sell.sol",
  "compiler": {
    "name": "solc",
    "version": "0.8.3+commit.8d00100c.Emscripten.clang"
  },
  "schemaVersion": "3.4.3",
  "updatedAt": "2021-11-10T14:18:15.918Z",
  "networkType": "ethereum",
  "devdoc": {
    "kind": "dev",
    "methods": {
      "buyTicket(uint256,uint256)": {
        "details": "    .",
        "params": {
          "_concert": " ",
          "_number": " "
        }
      },
      "checkMyTicket(uint256,uint256)": {
        "details": "    .",
        "params": {
          "_concert": " ",
          "_number": " "
        },
        "returns": {
          "_0": "   true."
        }
      },
      "getHash(uint256,uint256)": {
        "details": "   hash  .",
        "params": {
          "_concert": " ",
          "_number": " "
        },
        "returns": {
          "_0": " hash  ."
        }
      },
      "registerConcert(uint256,uint256,uint256,uint256,uint256)": {
        "details": "   hash  ticket  . ",
        "params": {
          "_aPrice": "A  ",
          "_concert": " ",
          "_number": " ",
          "_rPrice": "R  ",
          "_vipPrice": "VIP  "
        }
      },
      "setPrice(uint256,uint256,uint256)": {
        "details": "    .",
        "params": {
          "_concert": " ",
          "_number": " ",
          "_price": " "
        }
      },
      "transferTicket(uint256,uint256)": {
        "details": "    .",
        "params": {
          "_concert": " ",
          "_number": " "
        }
      }
    },
    "version": 1
  },
  "userdoc": {
    "kind": "user",
    "methods": {},
    "version": 1
  }
}